S0130000484155545F46504D4F44452E73726563C5
S1130000682100202D18000029180000291800007C
S113001000000000000000000000000000000000DC
S1130020000000000000000000000000291800008B
S1130030000000000000000029180000291800003A
S113004029180000291800002918000029180000A8
S1130050ED0A00002918000029180000410A0000D8
S1130060510A0000610A0000710A0000810A0000C0
S1130070910A00002918000029180000291800001E
S11300802918000029180000291800002918000068
S11300902918000029180000291800002918000058
S11300A02918000010B5064C2378002B07D1054B06
S11300B0002B02D0044800E000BF0123237010BDD0
S11300C03800002000000000381C0000084B10B568
S11300D0002B03D00749084800E000BF0748036825
S11300E0002B00D110BD064B002BFBD09847F9E73D
S11300F0000000003C000020381C0000381C0000F8
S113010000000000044A137802210B431370537853
S11301105BB2002BFBDB70470018004000B583B0D6
S1130120124A936940210B43936101A900230B7088
S113013003200F4B984703200E4B98470E4A137821
S113014001210B43137053785BB2002BFBDB0B4B89
S113015019004031002204C39942FCD11022084BFB
S11301601A60084B984703B000BDC0460004004025
S1130170D116000045160000001800409000002031
S113018000E100E005010000002303604360012258
S11301900272427283720233C3727047F0B583B045
S11301A005000C0001A900234B70CB7023790B7060
S11301B0237A8B702078154B984700201F2D00D888
S11301C0134807222A409200E77AA37A002B01D031
S11301D008231F43EB089B00C31899690F26964018
S11301E0B14397403A000A439A61637A002B06D1DF
S11301F043690122AA409343436103B0F0BD4269BD
S11302000123AB4013434361F7E7C046C91700001D
S113021000180040F0B5DE4657464E464546E0B568
S113022087B08046049116001F000022002300219D
S11302308B463F2401202100009601975C460394DD
S11302404446059413E02024641A0500E540A846BA
S113025014E0009C019D121BAB415C464D462C43AF
S1130260A346039C45462C430394013925D32024FB
S113027064420C19E7D40500A540A84604008C404C
S1130280A14692185B4114001D00059E4F463E4056
S1130290B446049E47463E40B246664657463E43F1
S11302A003D00600264332002B00009C019D9D4292
S11302B0DBD8CED19442D8D8CBE7039B584619005B
S11302C007B03CBC90469946A246AB46F0BD10B57B
S11302D0490840230024814202D2180010BD1C00AA
S11302E0091A631C9BB28842F9D94023FF2CF4D825
S11302F014800023F1E70000F0B583B00F0016006E
S113030008AA117804004C434022BC4202D91000D0
S113031003B0F0BD002B14D1020008000021194CD9
S1130320A04701003A0000230020174CA0470022F8
S11303300123121A8B41120C1B041A43328000222F
S1130340E5E70022012BF9D10A00002300210D4C1E
S1130350A04702000B0000920193380000210A4CD0
S1130360A047050080239B0140229842CFD8790FF3
S1130370F800009A019BA047EA00821AD2B2520305
S11303802A43DBE7491A00001502000010B582B0C9
S113039004000E4B1B78002B07D0002905D10B4B12
S11303A05B78834210D01D200CE001A90C700C2056
S11303B0074B98470C20074B9847044B5C7001226D
S11303C01A70002002B010BD0020FBE7540000208A
S11303D0D116000045160000404B984231D00AD98E
S11303E03F4B98424DD03F4B98425AD03E4B984297
S11303F037D0002070473D4B98420CD03C4B98427C
S1130400F7D1012917D000295DD0022915D003297D
S113041015D00020EEE7012907D0002951D0022988
S113042005D0032905D00020E4E73248E2E732484A
S1130430E0E73248DEE73248DCE73248DAE73248C0
S1130440D8E7012907D000293FD0022905D0032984
S113045005D00020CEE72D48CCE72D48CAE72D482B
S1130460C8E7012907D0002931D0022905D0032982
S113047005D00020BEE72848BCE72848BAE728484A
S1130480B8E7012907D0002923D0022905D0032980
S113049005D00020AEE72348ACE72348AAE7234869
S11304A0A8E7012907D0002915D0022905D003297E
S11304B005D000209EE71E489CE71E489AE71E4888
S11304C098E71E4896E7032094E71D4892E71D48E5
S11304D090E71D488EE71D488CE7C0460010004297
S11304E000180042001C00420014004200080042B0
S11304F0000C00420300050003000600030007008F
S11305000300010003001E0003001F000300090094
S113051003000A0003000B00030011000300120093
S11305200300130003000D0003000E0003000F007E
S1130530030017000300180003001900030004005F
S1130540030008000300100003000C000300160061
S113055030B587B00B4B6A4632CB32C232CB32C293
S1130560009B83420BD001239A0069465258824271
S113057006D00133062BF7D1002007B030BD00238D
S1130580D8B2FAE7E41A0000F0B5DE4657464E4604
S11305904546E0B58DB005000C0016002960080042
S11305A0804B9847020023680520DB0706D50DB071
S11305B03CBC90469946A246AB46F0BD2368173032
S11305C09B07F4D47849086A971C0123BB40034372
S11305D00B620BA9737F0B700D32D7B23800734BCB
S11305E098473800724B9847707F0021714B9847A9
S11305F0F37A6B71337DAB71737DEB712B68984625
S11306001800684B98470D3000220E2302A98C462F
S113061063441A8033680393F3689A46B37D9B4618
S113062073689946002B14D080235B05994530D11B
S1130630F37D002B31D133691F00C0B25E4B984764
S113064001000E2202AB9C46624438005B4B984783
S113065020E0F37D002B0BD01023009300230E2207
S113066002A98C466244B1693069554FB84711E01C
S113067033691F00C0B2504B984701001023009308
S113068000230E2202A88446624438004C4FB84727
S113069000E00020002800D089E72A68039F138A1D
S11306A01BB2002BFBDB0E2302AA944663441B8877
S11306B04246538153461F434B461F435B465B07E9
S11306C01F43F37D002B01D104331F43317D4904C3
S11306D0737D1B040B43B17AF27A114319433389B6
S11306E0FF2B03D08022520417431943337F002B7E
S11306F003D1344B9B789B0701D580231F432A6881
S1130700138A1BB2002BFBDB434659602A68138A09
S11307101BB2002BFBDB43461F600AAB80221A701E
S113072000225A70DA709A70336A0693736A0793D8
S1130730B36A0893F36A03930993002706AE06E0AD
S11307402000214B984707E00137042F0DD0F9B260
S1130750BB0098590028F3D0431CF5D00AA90870AF
S1130760000CC0B2194B9847EEE70023AB60EB6076
S11307702B61AB616B610022EB83AB832033EA54C2
S11307800133EA540133EA540133EA542868054B2F
S1130790984704000E490F4B9847A4000E4BE550B0
S11307A0002004E75105000000040040D1160000B9
S11307B0451600008D030000ED160000CF02000076
S11307C0F902000000200041D9030000C91700000D
S11307D0AD080000D5090000D0000020F8B50600DF
S11307E00C00150007680A4B9847F38B9BB2002B4B
S11307F003D0084B98470520F8BDF583054B98476F
S1130800B46105222323F254223B7B730020F3E7D7
S11308104912000089120000F8B506000C0015000A
S113082007680A4B9847B38B9BB2002B03D0084B45
S113083098470520F8BDB583054B98477461052298
S11308402223F2541E3B7B730020F3E7491200007D
S113085089120000931C9B0019502021012393400E
S11308601A00435C134343547047000010B5172328
S1130870002A01D1180010BDC4790533002CF9D029
S1130880014B98470300F5E7DD07000010B5172377
S1130890002A01D1180010BD84790533002CF9D049
S11308A0014B98470300F5E719080000F8B58000EC
S11308B0464BC5582C68238A1BB2002BFBDBA37B59
S11308C0667B1E402023EB5C2122AF5C1F40F307B4
S11308D022D5EB8B9BB2002B1CD0AA691378DBB218
S11308E0511CA961697901290ED09BB2DB05DB0D8E
S11308F02383EB8B013B9BB2EB83002B0CD10133A5
S113090023730133637307E0517809020B43023206
S1130910AA61EBE701232373B30706D502232373EC
S113092000222133EA54FB0716D473074DD5AB8B51
S11309309BB2002B47D0238ADBB25A0720D09A07F8
S11309400ED51A222223EA54203B23827B073CD56E
S11309502B692800984738E02800AB689847E4E7FB
S11309605A0705D51E222223EA541E3B2382EDE7B3
S1130970DB07EBD513222223EA54213B2382E5E74C
S1130980238BDB05DB0DDAB269690A706A69511CD5
S113099069616979012910D0AB8B013B9BB2AB83B0
S11309A0002B12D10433237300221E33EA54BB07F5
S11309B00BD5EB682800984707E01B0A53706B6956
S11309C001336B61E8E704232373F8BDD0000020F2
S11309D070470000F0B50A4B1B78002B0CD1094F6F
S11309E0094E0A4D0024DE515A1914600433182BA1
S11309F0F9D10122024B1A708000024BC150F0BDA4
S1130A005600002058000020D1090000D00000202A
S1130A1000B583B007236A46137001335370013362
S1130A2093700133D3700133137101335371034B4A
S1130A3098476B46185603B000BDC04651050000E8
S1130A4010B5024B1B680020984710BD58000020C9
S1130A5010B5024B5B680120984710BD5800002078
S1130A6010B5024B9B680220984710BD5800002027
S1130A7010B5024BDB680320984710BD58000020D6
S1130A8010B5024B1B690420984710BD5800002084
S1130A9010B5024B5B690520984710BD5800002033
S1130AA01723002A01D0180070478B00064A9B5870
S1130AB0002B03D0834205D01D23F4E7890088501E
S1130AC00023F0E70023EEE790000020172300291D
S1130AD001D01800704700221F2800D8024A0123C1
S1130AE08340D3600023F4E70018004070B500226F
S1130AF0104B1A70002310491F25104E0D4C0AE0AC
S1130B000D4908E023780133DBB223700F2B10D892
S1130B1000211F2BF4D928001840012282400869C3
S1130B201042EFD00A619B009B59002BEAD09847F2
S1130B30E8E770BDE80000200018004090000020A5
S1130B4070B50020084B98470500084CFA2189002D
S1130B50A047074B186007492800A047064B1860B8
S1130B600522064B1A6070BDB9150000311900004A
S1130B700000002040420F000400002010E000E0CC
S1130B8030B5084B1C68084A002580214902013809
S1130B9007D3002CFBD05460956013680B42FCD043
S1130BA0F5E730BD0000002010E000E000B583B0A0
S1130BB001AB80221A700A785A704A789A708A783F
S1130BC0DA701900014B984703B000BDC917000043
S1130BD0014BDB787047C04650010020704700008D
S1130BE0F0B5C64600B58EB002AB8022D2050292A3
S1130BF000225A60FF2119819A72DA72FE3919753E
S1130C0059759A75DA759A611A775A779622D201CC
S1130C101A61C4229203DA60012252421A625A62B1
S1130C202E4A9A622E4ADA622E4D2F4C02AA2F497E
S1130C302800A0470028F9D12A4D2C6820002C4B0D
S1130C4098471F2318401E3B83402A4A13602A6892
S1130C50138A1BB2002BFBDB23680222134323609D
S1130C60204C002224492000244DA8470122244975
S1130C702000A8472122A35C03210B43A35401AC09
S1130C80012363700026A6702370210036201D4DB9
S1130C90A8471D4B98468023DB0342469361C82036
S1130CA01A4FB84721003720A84780231B04424627
S1130CB053611E20B84721001520A84780229203C3
S1130CC0134B5A61267021001720A84721001620D3
S1130CD0A8470EB004BC9046F0BDC0460200180000
S1130CE0020019002C0100208905000000140042B4
S1130CF0110A000000E100E0DD0B000055080000CF
S1130D00D10B0000AD0B000080440041810B0000BA
S1130D100044004100290BD0020041180023107840
S1130D201B18DBB201328A42F9D15842C0B2704773
S1130D300023FAE780221201014BDA617047C046B2
S1130D408044004110B51A4B1A78112A0BD893002D
S1130D50184AD3589F460222154B1A70143216496A
S1130D601648174B984710BD0422114B1A701132C4
S1130D7011491248124B9847F5E70C220C4B1A7094
S1130D800A320D490D480E4B9847ECE70E22084BEA
S1130D901A70073208490948094B9847E3E71222B9
S1130DA0034B1A70053204490448054B9847DAE7A7
S1130DB065010020FC1A0000EC000020080100205E
S1130DC08D080000F8B54F4B1A78112A1FD89300EC
S1130DD04D4AD3589F464D4C0823A372651C0A21E3
S1130DE028004B4EB047E072012323741033637420
S1130DF0484B1B78A37420000C300721B047E074E3
S1130E0013232370132229004348444B9847F8BD09
S1130E103E4C0723A372651C0A2128003C4FB847A7
S1130E20E072012323741226667420000C3006211C
S1130E30B847A0742670122229003748374B9847C8
S1130E40E5E7324C0723A372651C0A212800304EC3
S1130E50B047E072012323742033637420000C3004
S1130E600621B047A07412232370122229002A48B5
S1130E702A4B9847CBE7254C0723A372651C0A210C
S1130E802800234EB047E072012323742133637496
S1130E9020000C300621B047A074122323701222C4
S1130EA029001D481D4B9847B1E7184C0723A3722E
S1130EB0651C0A212800164EB047E07201232374F2
S1130EC03433637420000C300621B047A07412231D
S1130ED02370122229001048104B984797E70B4CB7
S1130EE00923A372601C0A21094DA847E07201235B
S1130EF023741233637420000C300821A847207532
S1130F0085E7C04665010020441B00000C0000205A
S1130F10150D000008000020080100206D080000E5
S1130F2070B55F4B1A78122A65D893005D4AD3587E
S1130F309F465D4C162221005C485D4B9847237DFB
S1130F40002B58D1584B1B78F12B54D1FA20C000F8
S1130F50584B98470322524B1A70574B98474AE014
S1130F60514B1B7D002B1BD14F4B1B78F12B11D008
S1130F704D4B1B78002B3ED14B4B9B784F4A12684C
S1130F80934230D2632B1AD90522454B1A704A4B2F
S1130F90984730E00422444949484A4B98472AE09C
S1130FA0042BE5D1404B1B78F12BE1D1C820414BF8
S1130FB0984703223A4B1A703F4B98471BE03A4D2F
S1130FC00422290039483A4B9847C820394CA04795
S1130FD0AA783A4B1A60C820A0471122304B1A70E5
S1130FE0354B984707E0632B05D9CDE70D222C4BF1
S1130FF01A70314B984770BD2B4B1B7D002B13D1BE
S1131000294B1B78F12B09D0274B1B78002BF2D1ED
S1131010072225492548264B9847ECE70722224911
S11310202748284B9847E6E70A2B09D11E4B1B7823
S1131030F12BE9D107221C492148224B9847DAE7D2
S1131040042BE1D1184B1B78F12BDDD10122164979
S11310501B481C4B9847CEE7134B1B7D002B15D127
S1131060114B5B7D012B11D0002BC4D1164B1B7887
S1131070062BC0D80133144A137014480D4B9847FB
S11310800122074B1A700C4B9847B4E7C820094B50
S11310909847172204490548054B9847ABE7C046D3
S11310A0650100208C1B0000EC0000202C010020B6
S11310B06D080000810B0000C50D000070000020C9
S11310C0080100208D08000008000020881300009B
S11310D070B590B00DAD2800374B984710230D9391
S11310E000246C6001262E720E3BEB722900002056
S11310F0324B9847002200213148324B9847002157
S11311000020314B984701AB8022D20501925C60EC
S1131110FF221A819C72DC721E755E759C75DC75EB
S11311209C611C775C77E12252021A61C42292030B
S1131130DA60012252421A625A62244A9A62244AAA
S1131140DA62244D244C01AA24492800A04700282F
S1131150F9D1204D2C682000214B98471F231840BB
S11311601E3B83401F4A13602A68138A1BB2002B5C
S1131170FBDB2368022213432360164C00221A4926
S113118020001A4DA847012219492000A84721220E
S1131190A35C03210B43A35401236A46537000222A
S11311A069468A700B701120124B98478022920274
S11311B0114B9A6110B070BD890100009D010000BF
S11311C0350D0000A10A0000CD0A00000200120043
S11311D0020013000801002089050000000C0042F1
S11311E0110A000000E100E0450D00005508000070
S11311F0210F0000AD0B00000044004170B5002237
S11312000A4B1A6001320A4B1A700A4E0A4D0B4CF3
S11312100B48B04701232B70A047054A13780133CC
S1131220DBB21370062BF3D970BDC04670000020EA
S113123008000020810B000065010020C50D00009E
S1131240E02E0000704700000C4B1B68002B06D1F9
S1131250EFF31083002B07D00022094B1A70074AC2
S1131260136801331360704772B6BFF35F8F0022B7
S1131270044B1A700132024B1A70F0E7740000201C
S11312807800002034000020084B1A68013A1A60E4
S11312901B68002B09D1064B1B78002B05D00122BB
S11312A0044B1A70BFF35F8F62B67047740000205E
S11312B0780000203400002010B5072803D88000EF
S11312C0164B1B589F46002027E0154BD86824E096
S11312D0144B1B6A9B059B0F1348D8401DE0104B11
S11312E018691AE00E4B1B6800209B0715D50D49A1
S11312F01022CB681A42FCD0094B1B685B0701D44F
S11313000A480AE000200A4B9847054B9B681B04D7
S11313101B0C584301E08020000210BDD81B0000C4
S11313207C0000200008004000127A00006CDC02FF
S1131330ED16000070B50C490B6A04788578407886
S11313400122104080014026B34303432A40D201C6
S113135080208343134303222240120203480340A4
S113136013430B6270BDC04600080040FFFCFFFF42
S1131370072803D880001E4B1B589F46172036E0D1
S11313801C4A136A02210B43136200202FE0194AFE
S1131390936902210B439361002028E0154A138AC4
S11313A002210B431382002021E0124A938A022176
S11313B00B43938200201AE00F4B1A6802210A4360
S11313C01A601B680D4A13400A4A938411001022C4
S11313D0CB681A42FCD0084A9168064BD96251681E
S11313E09962126892B29A84002000E0002070474B
S11313F0F81B0000000800407C0000207FFF000074
S113140030B585B0C222D2001A4B9A601A4A53688A
S11314101E218B43536001236A4613700024174D29
S1131420E0B26946A84701341C2CF9D103A8002472
S11314304470012585700470114B98470620114BA8
S11314409847114B9847114B1C725C729C72DC726A
S113145001956B465C7006236A46137014725472CD
S1131460694600200A4B984700200A4B984705B06C
S113147030BDC0460008004000400041D1160000C5
S1131480351300007113000099140000000400409B
S1131490BD14000075150000064A936908210B432A
S11314A093610122044B1A7019000B781342FCD18A
S11314B07047C04600040040000C004070B50600B0
S11314C004000D782D0205434B78002B02D08023B5
S11314D0DB021D434B7A002B02D080231B031D43E8
S11314E04868012810D9431E184234D1022830D943
S11314F00223002201325B009842FBD812023243DD
S1131500140080235B031D430B7A002B02D080233D
S11315109B031D43134A53785BB2002BFBDB124B36
S11315209847124B1E700F4A53785BB2002BFBDBBB
S11315300C4B9C601A0053785BB2002BFBDB094A0E
S11315405368802149020B401D435560084B98475E
S113155070BD0022D2E70402344380239B021D4362
S1131560D2E7C046000C004049120000080C0040BD
S11315708912000010B504000B4A53785BB2002BAB
S1131580FBDB0A4B98470A4B1C70074A53785BB243
S1131590002BFBDB044A516880235B020B4353603E
S11315A0044B984710BDC046000C0040491200008F
S11315B0040C00408912000070B504001A4A5378E4
S11315C05BB2002BFBDB194B9847194B1C70164A76
S11315D053785BB2002BFBDB134E7068C004C00E63
S11315E0144B98470500124B1C707668F602F60FF0
S11315F0114B1C700C4A53785BB2002BFBDB0A4B7B
S11316009C682402240C0D4B9847002E07D1012C12
S113161007D9210028000A4B9847050001E001344E
S1131620E540280070BDC046000C0040491200008F
S1131630040C0040B9120000080C0040891200009C
S11316403119000010B50400064B9847064B1C7076
S1131650064A53888021C9010B435380044B9847A1
S113166010BDC04649120000020C0040000C0040AE
S11316708912000010B504000F4B98470F4B1C70E3
S11316800F4A53881B05180F53880E490B4053808B
S113169053880D490B40538011008022D2014B889E
S11316A01342FCD106494A88030206480240134308
S11316B04B80064B984710BD49120000020C0040B5
S11316C0000C0040FFF0FFFFFFBFFFFF8912000086
S11316D010B50C7824020443024B9847A4B2024B81
S11316E05C8010BD75160000000C004010B50400AD
S11316F0064B9847064B1C70064B5C882405240F48
S1131700054B98472000054B984710BD491200002F
S1131710020C0040000C004089120000B9150000C2
S113172030B5D378002B35D11378802B29D01B0604
S113173080246402234354780225AC4306D1947870
S1131740002C20D18024A402234341605478013C1E
S1131750012C1CD90D042D0CA024E4052C431C439E
S113176084620D0CD02424062C431C438462D47858
S1131770002C22D15B031CD59378012B1ED0416130
S113178017E00023D7E7C024E4022343DDE70D4C30
S11317902340DFE741600C04240CA023DB05234332
S11317A083620C0CD0231B0623438362D378002B63
S11317B003D15378013B012B02D930BD8161F8E795
S11317C08160FAE7FFFFFBFF10B50A00C10900239F
S11317D0002904D14309DB0105498C4663441F24D5
S11317E02040012181401800024B984710BDC0469B
S11317F000440041211700007047000010B5054B5C
S11318009847054B9847054B9847054B9847054B18
S1131810984710BD0114000045120000F91700009C
S11318201D010000F9170000FEE7000010B51A4A78
S11318301A4B9A4211D01A00194B9A420DD2194AE6
S113184003339B1A9B0801339B000022134812495F
S11318508C58845004329A42FAD1134A134B9A4258
S11318600AD2D34311495B1803218B4304339B18D9
S1131870002102C29342FCD10D4AFF210D4B8B4340
S113188093600D4A53687F390B4353600B4B984761
S11318900B4B9847FEE7C046381C000000000020B0
S11318A038000020040000203800002068010020D7
S11318B000ED00E000000000004000419D1A00001F
S11318C0F118000000B583B001A901234B70002278
S11318D08A700B702B20044B984780221201034B13
S11318E05A6103B000BDC046AD0B00008044004106
S11318F010B5084B9847084B9847084B98479620D3
S11319004000074B9847074B9847074B9847074BAE
S11319109847FEE7FD170000C5180000410B0000C2
S1131920810B0000D1100000E10B0000FD1100004C
S1131930002243088B4274D303098B425FD3030A0A
S11319408B4244D3030B8B4228D3030C8B420DD31D
S1131950FF22090212BA030C8B4202D312120902AB
S113196065D0030B8B4219D300E0090AC30B8B42E9
S113197001D3CB03C01A5241830B8B4201D38B0397
S1131980C01A5241430B8B4201D34B03C01A52413C
S1131990030B8B4201D30B03C01A5241C30A8B427F
S11319A001D3CB02C01A5241830A8B4201D38B026A
S11319B0C01A5241430A8B4201D34B02C01A52410E
S11319C0030A8B4201D30B02C01A5241CDD2C30980
S11319D08B4201D3CB01C01A524183098B4201D3FC
S11319E08B01C01A524143098B4201D34B01C01AE7
S11319F0524103098B4201D30B01C01A5241C3085F
S1131A008B4201D3CB00C01A524183088B4201D3CD
S1131A108B00C01A524143088B4201D34B00C01AB9
S1131A205241411A00D20146524110467047FFE725
S1131A3001B5002000F006F802BDC0460029F7D029
S1131A4076E770477047C046F0B5CE464746150462
S1131A502D0C2E0080B50704140C3F0C9946030C82
S1131A607E435D43674363437F19340CE4199C460A
S1131A70A54203D980235B029846C4444B46514394
S1131A8043433604360C250C24046544A419591820
S1131A90491920000CBC90469946F0BD70B500264B
S1131AA00C4D0D4C641BA410A64209D1002600F075
S1131AB0B3F80A4D0A4C641BA410A64205D170BDAC
S1131AC0B300EB5898470136EEE7B300EB5898475C
S1131AD00136F2E7241C0000241C0000241C000032
S1131AE0281C000000080042000C004200100042C4
S1131AF00014004200180042001C0042660D000061
S1131B00560D0000660D0000680D0000660D000013
S1131B10660D0000660D0000660D0000660D0000F5
S1131B20660D0000660D00007A0D0000660D0000D1
S1131B308C0D0000660D0000660D0000660D0000AF
S1131B409E0D00000E0E0000D60D00000E0E0000CB
S1131B50100E00000E0E0000DE0E00000E0E00003F
S1131B600E0E00000E0E00000E0E00000E0E000001
S1131B70420E00000E0E0000760E00000E0E000055
S1131B800E0E00000E0E0000AA0E0000F60F00005C
S1131B90F60F0000320F0000F60F0000600F000087
S1131BA0F60F0000F60F0000F60F0000F60F00001D
S1131BB0F60F0000F60F0000F60F0000EC0F000017
S1131BC0F60F0000F80F0000F60F0000F60F0000FB
S1131BD0F60F000058100000CA120000C6120000E0
S1131BE0C61200001613000016130000DE120000D7
S1131BF0D0120000E41200009C1300007C130000CB
S1131C007C130000EC1300008E130000AA130000E4
S1131C1080130000B8130000F8B5C046F8BC08BC37
S1131C209E467047CD000000F8B5C046F8BC08BC1D
S10B1C309E467047A500000068
S1131C38401F0000080000000100000012F11FE22C
S1131C482EB66BA88A000786000000000121DE007A
S1131C58A5A6A7A8B5B6B7B8000000000000000004
S10B1C6800000000010000006F
S903182DB7
